:020000040000FA
:1000000068020010650100006D0100006F01000032
:1000100000000000000000000000000000000000E0
:10002000000000000000000000000000710100005E
:1000300000000000000000007301000075010000D6
:1000400077010000770100007701000077010000D0
:1000500077010000770100007701000077010000C0
:1000600077010000770100007701000077010000B0
:1000700077010000770100007701000077010000A0
:100080007701000077010000770100007701000090
:100090007701000077010000770100007701000080
:1000A0007701000077010000770100007701000070
:1000B000D503000077010000770100007701000000
:1000C00000F002F800F03EF80CA030C80838241800
:1000D0002D18A246671EAB4654465D46AC4201D180
:1000E00000F030F87E460F3E0FCCB6460126334274
:1000F00000D0FB1AA246AB4633431847F404000075
:1001000014050000103A02D378C878C1FAD8520713
:1001100001D330C830C101D504680C6070470000BD
:100120000023002400250026103A01D378C1FBD813
:10013000520700D330C100D50B6070471FB51FBDFB
:1001400010B510BD00F0DCF81146FFF7F7FF00F026
:10015000EDF900F0F4F803B4FFF7F2FF03BC00F090
:10016000FBF800000748804707480047FEE7FEE726
:10017000FEE7FEE7FEE7FEE704480549034A054BB4
:10018000704700008D040000C100000068000010EE
:100190006802001068000010002203098B422CD373
:1001A000030A8B4211D300239C464EE003460B43C7
:1001B0003CD4002243088B4231D303098B421CD329
:1001C000030A8B4201D394463FE0C3098B4201D31B
:1001D000CB01C01A524183098B4201D38B01C01A53
:1001E000524143098B4201D34B01C01A52410309CA
:1001F0008B4201D30B01C01A5241C3088B4201D379
:10020000CB00C01A524183088B4201D38B00C01A25
:10021000524143088B4201D34B00C01A5241411A4C
:1002200000D201465241104670475DE0CA0F00D02F
:100230004942031000D34042534000229C46030928
:100240008B422DD3030A8B4212D3FC22890112BAAE
:10025000030A8B420CD3890192118B4208D3890186
:1002600092118B4204D389013AD0921100E089099E
:10027000C3098B4201D3CB01C01A524183098B427F
:1002800001D38B01C01A524143098B4201D34B0168
:10029000C01A524103098B4201D30B01C01A5241CB
:1002A000C3088B4201D3CB00C01A524183088B4252
:1002B00001D38B00C01A5241D9D243088B4201D3DB
:1002C0004B00C01A5241411A00D2014663465241C6
:1002D0005B10104601D34042002B00D549427047C5
:1002E00063465B1000D3404201B50020C046C046C3
:1002F00002BD70477047704770470000FFFFFFFF67
:10030000754600F025F8AE46050069465346C0081C
:10031000C000854618B020B5FFF72EFF60BC00274F
:100320004908B6460026C0C5C0C5C0C5C0C5C0C5C1
:10033000C0C5C0C5C0C5403D49008D46704710B519
:100340000446C046C0462046FFF705FF10BD00002A
:10035000004870470800001001491820ABBEFEE7B6
:1003600026000200184A126801231B041A43164B88
:100370001A60164A1268D208D200144B1A601A4644
:10038000126803231A43114B1A600F4A12680123A3
:100390001B049A430C4B1A601A4612681B151A4329
:1003A000094B1A6002220A4B5A600022DA601A15C1
:1003B0005A610222064B40335A63054AD1615062AA
:1003C0000122034B5A607047808004408040044003
:1003D0000080014070B52948806904210840042844
:1003E00022D127480088401C2549088008460088FB
:1003F0000A2802DD0120088013E022490968204A0A
:100400001288514308462049FFF7C6FE04467D2165
:10041000C9001C480068FFF7BFFE05462146FFF7EC
:10042000A1FF04201549C8611448806908210840CB
:10043000082822D112480088401E11490880084629
:100440000088002802DC0A20088013E00D490968B2
:100450000B4A1288514308460B49FFF79DFE04469C
:100460007D21C90007480068FFF796FE0546214632
:10047000FFF778FF08200149C86170BD0080035074
:1004800000000010040000101027000008B52548E7
:10049000806B202188432349886300202249086219
:1004A000009003E000BF0098401C00900098C8280E
:1004B000F8D301201C4940310860486000204860A2
:1004C0000120486000BF184840304068C007C00F96
:1004D0000028F8D02320144988601248806B8021BE
:1004E00088431049886300BF0F48C068C007C00F29
:1004F0000028F9D003200C494031086301204863EB
:10050000002048630120486300BF07484030406B2B
:10051000C007C00F0028F8D001200349403188638C
:1005200008BD000000820440008004407D21C90015
:100530002B480068FFF730FE04467D21C90028489B
:100540000068FFF729FE05462146FFF70BFF254807
:10055000C069C008C0002349C8612348006804215D
:100560008843214908601F48C06AC008C0001D496F
:10057000C8621D480068082188431B490860084676
:1005800000690421084318490861084600690821E8
:100590000843154908610846406804218843124908
:1005A000486008464068082188430F49486008466B
:1005B000C068042188430C49C8600846C068082107
:1005C00088430949C8601C20002805DBC206D20EFA
:1005D00001219140054A116000BF00BFFEE7000005
:1005E00004000010804004400080035000E100E05F
:1005F00010060000000000100800000004010000C8
:100600001806000008000010600200002001000031
:0806100000000000006CDC0298
:04000005000000C136
:00000001FF
